{
  "address": "0x5FbDB2315678afecb367f032d93F642f64180aa3",
  "abi": [
    {
      "inputs": [],
      "stateMutability": "nonpayable",
      "type": "constructor"
    },
    {
      "inputs": [
        {
          "internalType": "address",
          "name": "target",
          "type": "address"
        }
      ],
      "name": "AddressEmptyCode",
      "type": "error"
    },
    {
      "inputs": [
        {
          "internalType": "address",
          "name": "account",
          "type": "address"
        }
      ],
      "name": "AddressInsufficientBalance",
      "type": "error"
    },
    {
      "inputs": [],
      "name": "FailedInnerCall",
      "type": "error"
    },
    {
      "inputs": [
        {
          "internalType": "address",
          "name": "token",
          "type": "address"
        }
      ],
      "name": "SafeERC20FailedOperation",
      "type": "error"
    },
    {
      "anonymous": false,
      "inputs": [
        {
          "indexed": false,
          "internalType": "address",
          "name": "withdrawer",
          "type": "address"
        },
        {
          "indexed": false,
          "internalType": "uint256",
          "name": "amount",
          "type": "uint256"
        }
      ],
      "name": "Withdrawn",
      "type": "event"
    },
    {
      "inputs": [
        {
          "internalType": "contract IERC20",
          "name": "currency",
          "type": "address"
        },
        {
          "internalType": "uint256",
          "name": "amount",
          "type": "uint256"
        }
      ],
      "name": "withdraw",
      "outputs": [],
      "stateMutability": "nonpayable",
      "type": "function"
    }
  ],
  "transactionHash": "0x3b615d810edaaecfc08f77a923e9440edda4c533e2802f1c98a740008126720b",
  "args": [],
  "numDeployments": 1,
  "solcInputHash": "a1bbfd2f4ce545329bb1f22f5e0dea5e",
  "bytecode": "0x6080806040523460225768056bc75e2d631000006000556102e990816100288239f35b600080fdfe604060808152600436101561001357600080fd5b600090813560e01c63f3fef3a31461002a57600080fd5b346101f157806003193601126101f1576004356001600160a01b03811691908290036101ed576024359133845260206001815261006a84848720546101f5565b8554106101aa57338552600181528285206100868582546101f5565b9055825163a9059cbb60e01b82820190815233602483015260448083018790528252601f1991879182916100bb606482610218565b519082875af13d1561019d573d67ffffffffffffffff811161018957906100ff92916100f085885194601f8401160184610218565b82523d888584013e5b84610250565b8051918215159182610160575b5050905061014a57505133815260208101919091527f7084f5476618d8e60b11ef0d7d3f06914655adb8793e28ff7f018d4c76d505d590604090a180f35b6024915190635274afe760e01b82526004820152fd5b8092508193810103126101855701518015908115036101815780388061010c565b8480fd5b8580fd5b634e487b7160e01b88526041600452602488fd5b6100ff91506060906100f9565b60649083519062461bcd60e51b82526004820152601a60248201527f4d6178204c696d69742077696c6c2062652065786365656465640000000000006044820152fd5b8280fd5b5080fd5b9190820180921161020257565b634e487b7160e01b600052601160045260246000fd5b90601f8019910116810190811067ffffffffffffffff82111761023a57604052565b634e487b7160e01b600052604160045260246000fd5b90610277575080511561026557805190602001fd5b604051630a12f52160e11b8152600490fd5b815115806102aa575b610288575090565b604051639996b31560e01b81526001600160a01b039091166004820152602490fd5b50803b1561028056fea2646970667358221220d82b9a0ff53c45b9aaf8e49704ec1bdf0984fe321a912e835a747e8e0eb6f16364736f6c63430008190033",
  "devdoc": {
    "errors": {
      "AddressEmptyCode(address)": [
        {
          "details": "There's no code at `target` (it is not a contract)."
        }
      ],
      "AddressInsufficientBalance(address)": [
        {
          "details": "The ETH balance of the account is not enough to perform the operation."
        }
      ],
      "FailedInnerCall()": [
        {
          "details": "A call to an address target failed. The target may have reverted."
        }
      ],
      "SafeERC20FailedOperation(address)": [
        {
          "details": "An operation with an ERC20 token failed."
        }
      ]
    },
    "kind": "dev",
    "methods": {},
    "version": 1
  },
  "userdoc": {
    "kind": "user",
    "methods": {},
    "version": 1
  },
  "storageLayout": {
    "storage": [
      {
        "astId": 5400,
        "contract": "contracts/Faucet.sol:Faucet",
        "label": "max",
        "offset": 0,
        "slot": "0",
        "type": "t_uint256"
      },
      {
        "astId": 5404,
        "contract": "contracts/Faucet.sol:Faucet",
        "label": "withdrawals",
        "offset": 0,
        "slot": "1",
        "type": "t_mapping(t_address,t_uint256)"
      }
    ],
    "types": {
      "t_address": {
        "encoding": "inplace",
        "label": "address",
        "numberOfBytes": "20"
      },
      "t_mapping(t_address,t_uint256)": {
        "encoding": "mapping",
        "key": "t_address",
        "label": "mapping(address => uint256)",
        "numberOfBytes": "32",
        "value": "t_uint256"
      },
      "t_uint256": {
        "encoding": "inplace",
        "label": "uint256",
        "numberOfBytes": "32"
      }
    }
  }
}