{
  "address": "0x9fE46736679d2D9a65F0992F2272dE9f3c7fa6e0",
  "abi": [
    {
      "inputs": [],
      "stateMutability": "nonpayable",
      "type": "constructor"
    },
    {
      "inputs": [
        {
          "internalType": "address",
          "name": "sender",
          "type": "address"
        },
        {
          "internalType": "uint256",
          "name": "tokenId",
          "type": "uint256"
        },
        {
          "internalType": "address",
          "name": "owner",
          "type": "address"
        }
      ],
      "name": "ERC721IncorrectOwner",
      "type": "error"
    },
    {
      "inputs": [
        {
          "internalType": "address",
          "name": "operator",
          "type": "address"
        },
        {
          "internalType": "uint256",
          "name": "tokenId",
          "type": "uint256"
        }
      ],
      "name": "ERC721InsufficientApproval",
      "type": "error"
    },
    {
      "inputs": [
        {
          "internalType": "address",
          "name": "approver",
          "type": "address"
        }
      ],
      "name": "ERC721InvalidApprover",
      "type": "error"
    },
    {
      "inputs": [
        {
          "internalType": "address",
          "name": "operator",
          "type": "address"
        }
      ],
      "name": "ERC721InvalidOperator",
      "type": "error"
    },
    {
      "inputs": [
        {
          "internalType": "address",
          "name": "owner",
          "type": "address"
        }
      ],
      "name": "ERC721InvalidOwner",
      "type": "error"
    },
    {
      "inputs": [
        {
          "internalType": "address",
          "name": "receiver",
          "type": "address"
        }
      ],
      "name": "ERC721InvalidReceiver",
      "type": "error"
    },
    {
      "inputs": [
        {
          "internalType": "address",
          "name": "sender",
          "type": "address"
        }
      ],
      "name": "ERC721InvalidSender",
      "type": "error"
    },
    {
      "inputs": [
        {
          "internalType": "uint256",
          "name": "tokenId",
          "type": "uint256"
        }
      ],
      "name": "ERC721NonexistentToken",
      "type": "error"
    },
    {
      "inputs": [
        {
          "internalType": "address",
          "name": "owner",
          "type": "address"
        }
      ],
      "name": "OwnableInvalidOwner",
      "type": "error"
    },
    {
      "inputs": [
        {
          "internalType": "address",
          "name": "account",
          "type": "address"
        }
      ],
      "name": "OwnableUnauthorizedAccount",
      "type": "error"
    },
    {
      "anonymous": false,
      "inputs": [
        {
          "indexed": true,
          "internalType": "address",
          "name": "owner",
          "type": "address"
        },
        {
          "indexed": true,
          "internalType": "address",
          "name": "approved",
          "type": "address"
        },
        {
          "indexed": true,
          "internalType": "uint256",
          "name": "tokenId",
          "type": "uint256"
        }
      ],
      "name": "Approval",
      "type": "event"
    },
    {
      "anonymous": false,
      "inputs": [
        {
          "indexed": true,
          "internalType": "address",
          "name": "owner",
          "type": "address"
        },
        {
          "indexed": true,
          "internalType": "address",
          "name": "operator",
          "type": "address"
        },
        {
          "indexed": false,
          "internalType": "bool",
          "name": "approved",
          "type": "bool"
        }
      ],
      "name": "ApprovalForAll",
      "type": "event"
    },
    {
      "anonymous": false,
      "inputs": [
        {
          "indexed": false,
          "internalType": "uint256",
          "name": "_fromTokenId",
          "type": "uint256"
        },
        {
          "indexed": false,
          "internalType": "uint256",
          "name": "_toTokenId",
          "type": "uint256"
        }
      ],
      "name": "BatchMetadataUpdate",
      "type": "event"
    },
    {
      "anonymous": false,
      "inputs": [
        {
          "indexed": false,
          "internalType": "uint256",
          "name": "_tokenId",
          "type": "uint256"
        }
      ],
      "name": "MetadataUpdate",
      "type": "event"
    },
    {
      "anonymous": false,
      "inputs": [
        {
          "indexed": true,
          "internalType": "address",
          "name": "previousOwner",
          "type": "address"
        },
        {
          "indexed": true,
          "internalType": "address",
          "name": "newOwner",
          "type": "address"
        }
      ],
      "name": "OwnershipTransferred",
      "type": "event"
    },
    {
      "anonymous": false,
      "inputs": [
        {
          "indexed": true,
          "internalType": "address",
          "name": "from",
          "type": "address"
        },
        {
          "indexed": true,
          "internalType": "address",
          "name": "to",
          "type": "address"
        },
        {
          "indexed": true,
          "internalType": "uint256",
          "name": "tokenId",
          "type": "uint256"
        }
      ],
      "name": "Transfer",
      "type": "event"
    },
    {
      "inputs": [
        {
          "internalType": "address",
          "name": "to",
          "type": "address"
        },
        {
          "internalType": "uint256",
          "name": "tokenId",
          "type": "uint256"
        }
      ],
      "name": "approve",
      "outputs": [],
      "stateMutability": "nonpayable",
      "type": "function"
    },
    {
      "inputs": [
        {
          "internalType": "address",
          "name": "owner",
          "type": "address"
        }
      ],
      "name": "balanceOf",
      "outputs": [
        {
          "internalType": "uint256",
          "name": "",
          "type": "uint256"
        }
      ],
      "stateMutability": "view",
      "type": "function"
    },
    {
      "inputs": [],
      "name": "baseUri",
      "outputs": [
        {
          "internalType": "string",
          "name": "",
          "type": "string"
        }
      ],
      "stateMutability": "view",
      "type": "function"
    },
    {
      "inputs": [],
      "name": "currentTokenCounter",
      "outputs": [
        {
          "internalType": "uint256",
          "name": "",
          "type": "uint256"
        }
      ],
      "stateMutability": "view",
      "type": "function"
    },
    {
      "inputs": [
        {
          "internalType": "uint256",
          "name": "tokenId",
          "type": "uint256"
        }
      ],
      "name": "getApproved",
      "outputs": [
        {
          "internalType": "address",
          "name": "",
          "type": "address"
        }
      ],
      "stateMutability": "view",
      "type": "function"
    },
    {
      "inputs": [
        {
          "internalType": "address",
          "name": "owner",
          "type": "address"
        },
        {
          "internalType": "address",
          "name": "operator",
          "type": "address"
        }
      ],
      "name": "isApprovedForAll",
      "outputs": [
        {
          "internalType": "bool",
          "name": "",
          "type": "bool"
        }
      ],
      "stateMutability": "view",
      "type": "function"
    },
    {
      "inputs": [],
      "name": "name",
      "outputs": [
        {
          "internalType": "string",
          "name": "",
          "type": "string"
        }
      ],
      "stateMutability": "view",
      "type": "function"
    },
    {
      "inputs": [],
      "name": "owner",
      "outputs": [
        {
          "internalType": "address",
          "name": "",
          "type": "address"
        }
      ],
      "stateMutability": "view",
      "type": "function"
    },
    {
      "inputs": [
        {
          "internalType": "uint256",
          "name": "tokenId",
          "type": "uint256"
        }
      ],
      "name": "ownerOf",
      "outputs": [
        {
          "internalType": "address",
          "name": "",
          "type": "address"
        }
      ],
      "stateMutability": "view",
      "type": "function"
    },
    {
      "inputs": [],
      "name": "renounceOwnership",
      "outputs": [],
      "stateMutability": "nonpayable",
      "type": "function"
    },
    {
      "inputs": [
        {
          "internalType": "address",
          "name": "to",
          "type": "address"
        },
        {
          "internalType": "string",
          "name": "uri",
          "type": "string"
        }
      ],
      "name": "safeMint",
      "outputs": [],
      "stateMutability": "nonpayable",
      "type": "function"
    },
    {
      "inputs": [
        {
          "internalType": "address",
          "name": "from",
          "type": "address"
        },
        {
          "internalType": "address",
          "name": "to",
          "type": "address"
        },
        {
          "internalType": "uint256",
          "name": "tokenId",
          "type": "uint256"
        }
      ],
      "name": "safeTransferFrom",
      "outputs": [],
      "stateMutability": "nonpayable",
      "type": "function"
    },
    {
      "inputs": [
        {
          "internalType": "address",
          "name": "from",
          "type": "address"
        },
        {
          "internalType": "address",
          "name": "to",
          "type": "address"
        },
        {
          "internalType": "uint256",
          "name": "tokenId",
          "type": "uint256"
        },
        {
          "internalType": "bytes",
          "name": "data",
          "type": "bytes"
        }
      ],
      "name": "safeTransferFrom",
      "outputs": [],
      "stateMutability": "nonpayable",
      "type": "function"
    },
    {
      "inputs": [
        {
          "internalType": "address",
          "name": "operator",
          "type": "address"
        },
        {
          "internalType": "bool",
          "name": "approved",
          "type": "bool"
        }
      ],
      "name": "setApprovalForAll",
      "outputs": [],
      "stateMutability": "nonpayable",
      "type": "function"
    },
    {
      "inputs": [
        {
          "internalType": "string",
          "name": "newUri",
          "type": "string"
        }
      ],
      "name": "setBaseURI",
      "outputs": [],
      "stateMutability": "nonpayable",
      "type": "function"
    },
    {
      "inputs": [
        {
          "internalType": "bytes4",
          "name": "interfaceId",
          "type": "bytes4"
        }
      ],
      "name": "supportsInterface",
      "outputs": [
        {
          "internalType": "bool",
          "name": "",
          "type": "bool"
        }
      ],
      "stateMutability": "view",
      "type": "function"
    },
    {
      "inputs": [],
      "name": "symbol",
      "outputs": [
        {
          "internalType": "string",
          "name": "",
          "type": "string"
        }
      ],
      "stateMutability": "view",
      "type": "function"
    },
    {
      "inputs": [
        {
          "internalType": "uint256",
          "name": "tokenId",
          "type": "uint256"
        }
      ],
      "name": "tokenURI",
      "outputs": [
        {
          "internalType": "string",
          "name": "",
          "type": "string"
        }
      ],
      "stateMutability": "view",
      "type": "function"
    },
    {
      "inputs": [
        {
          "internalType": "address",
          "name": "from",
          "type": "address"
        },
        {
          "internalType": "address",
          "name": "to",
          "type": "address"
        },
        {
          "internalType": "uint256",
          "name": "tokenId",
          "type": "uint256"
        }
      ],
      "name": "transferFrom",
      "outputs": [],
      "stateMutability": "nonpayable",
      "type": "function"
    },
    {
      "inputs": [
        {
          "internalType": "address",
          "name": "newOwner",
          "type": "address"
        }
      ],
      "name": "transferOwnership",
      "outputs": [],
      "stateMutability": "nonpayable",
      "type": "function"
    }
  ],
  "transactionHash": "0x9a5ba1c2e67f84726f976284de82049446a374344b33f07d0fc48dc99aa68f3e",
  "args": [],
  "numDeployments": 1,
  "solcInputHash": "a1bbfd2f4ce545329bb1f22f5e0dea5e",
  "bytecode": "0x608034610303576040906001600160401b0390808301828111828210176102ed57835260068152602090655a617270617960d01b828201528351848101818110858211176102ed57855260048152635a50415960e01b838201528151938085116102ed57600094806100718754610308565b94601f958681116102c1575b50869086831160011461025e578892610253575b50508160011b916000199060031b1c19161785555b815190811161023f57806001926100bd8454610308565b858111610209575b5085908583116001146101aa57879261019f575b5050600019600383901b1c191690821b1790555b33156101875760078054336001600160a01b0319821681179092556001600160a01b03167f8be0079c531659141344cd1fd0a4f28419497f9722a3daafe3b4186f6b6457e08580a3610140600954610308565b91818311610168575b600e66697066733a2f2f60c81b0160095584516116b1908161035a8239f35b83600961017e955220910160051c810190610342565b38808080610149565b8351631e4fbdf760e01b815260048101849052602490fd5b0151905038806100d9565b8488528688208594509190601f198416895b898282106101f357505084116101da575b505050811b0190556100ed565b015160001960f88460031b161c191690553880806101cd565b83850151865588979095019493840193016101bc565b610230908589528789208780860160051c8201928a8710610236575b0160051c0190610342565b386100c5565b92508192610225565b634e487b7160e01b85526041600452602485fd5b015190503880610091565b8880528789209250601f198416895b898282106102ab575050908460019594939210610292575b505050811b0185556100a6565b015160001960f88460031b161c19169055388080610285565b600185968293968601518155019501930161026d565b6102e790898052888a208880860160051c8201928b8710610236570160051c0190610342565b3861007d565b634e487b7160e01b600052604160045260246000fd5b600080fd5b90600182811c92168015610338575b602083101461032257565b634e487b7160e01b600052602260045260246000fd5b91607f1691610317565b81811061034d575050565b6000815560010161034256fe6080604081815260048036101561001557600080fd5b600092833560e01c90816301ffc9a714610cc95750806306fdde0314610c18578063081812fc14610bdd578063095ea7b314610b0157806323b872dd14610ae957806342842e0e14610aba578063449e59ee14610a9b57806355f804b31461092c5780636352211e146108fb57806370a08231146108a6578063715018a6146108495780638da5cb5b1461082057806395d89b41146107355780639abc832014610717578063a22cb4651461067a578063b88d4fde14610608578063c87b56dd146105d0578063d204c45e146101e3578063e985e9c5146101915763f2fde38b146100ff57600080fd5b3461018d57602036600319011261018d57610118610d97565b9061012161118a565b6001600160a01b03918216928315610177575050600754826bffffffffffffffffffffffff60a01b821617600755167f8be0079c531659141344cd1fd0a4f28419497f9722a3daafe3b4186f6b6457e08380a380f35b51631e4fbdf760e01b8152908101849052602490fd5b8280fd5b5050346101df57806003193601126101df5760ff816020936101b1610d97565b6101b9610db2565b6001600160a01b0391821683526005875283832091168252855220549151911615158152f35b5080fd5b5082346105cd57826003193601126105cd576101fd610d97565b6024929067ffffffffffffffff84358181116105c9576102209036908501610ea4565b956008549181519361023185610dfd565b8685526001600160a01b03948186169182156105b35785895260209660028852858a20541686848215159283610580575b818d5260038b52888d2080546001019055828d5260028b52888d2080546001600160a01b031916831790557fddf252ad1be2c89b69c2b068fc378daa952ba7f163c4a11628f55a4df523b3ef8d80a461056a573b610446575b505082865260068452818620908851908111610434576102db8254610ec2565b601f81116103f1575b5084601f821160011461036c57819088999a7ff8e1a15aba9398e019f0b49df1a4fde98ee17ae345cb5f6b5e2c27f5033e8ce7989992610361575b50508160011b916000199060031b1c19161790555b51908152a1600854906000198214610350575060010160085580f35b634e487b7160e01b83526011905250fd5b015190508a8061031f565b82885285882099601f198316895b8181106103da5750917ff8e1a15aba9398e019f0b49df1a4fde98ee17ae345cb5f6b5e2c27f5033e8ce798999a9b918460019594106103c1575b505050811b019055610334565b015160001960f88460031b161c191690558a80806103b4565b838301518d556001909c019b92880192880161037a565b828852858820601f830160051c81019187841061042a575b601f0160051c01905b81811061041f57506102e4565b888155600101610412565b9091508190610409565b634e487b7160e01b8752604186528787fd5b95839686898b610489859d9e989c9997969c519485938493630a85bd0160e11b988986523390860152840152886044840152608060648401526084830190610d72565b0381898d5af1869181610526575b506104f15750505050503d6000146104e9573d6104b381610e51565b906104c085519283610e2f565b81528091833d92013e5b805191826104e6575050505191633250574960e11b8352820152fd5b01fd5b5060606104ca565b63ffffffff60e09b9a98959b99939496991b1603610511575088806102bb565b858891845191633250574960e11b8352820152fd5b9091508781813d8311610563575b61053e8183610e2f565b8101031261055f57516001600160e01b03198116810361055f57908c610497565b8680fd5b503d610534565b84516339e3563760e11b81528089018a90528a90fd5b600083815260046020526040902080546001600160a01b0319169055808d5260038b52888d208054600019019055610262565b8451633250574960e11b81528089018a90528a90fd5b8480fd5b80fd5b5091346105cd5760203660031901126105cd57506105f1610604923561133b565b9051918291602083526020830190610d72565b0390f35b8382346101df5760803660031901126101df57610623610d97565b61062b610db2565b6044359060643567ffffffffffffffff81116106765736602382011215610676576106739481602461066293369301359101610e6d565b9261066e838383610fb0565b6111b6565b80f35b8580fd5b50903461018d578060031936011261018d57610694610d97565b90602435918215158093036105c9576001600160a01b03169283156107025750338452600560205280842083855260205280842060ff1981541660ff8416179055519081527f17307eab39ab6107e8899845ad3d59bd9653f200f220920489ca2b5937696c3160203392a380f35b836024925191630b61174360e31b8352820152fd5b5050346101df57816003193601126101df57610604906105f1610efc565b8284346105cd57806003193601126105cd5781519182826001936001549461075c86610ec2565b91828552602096876001821691826000146107f957505060011461079d575b505050610604929161078e910385610e2f565b51928284938452830190610d72565b9190869350600183527fb10e2d527612073b26eecdfd717e6a320cf44b4afac2b0732d9fcbe2b7fa0cf65b8284106107e1575050508201018161078e61060461077b565b8054848a0186015288955087949093019281016107c8565b60ff19168782015293151560051b8601909301935084925061078e9150610604905061077b565b5050346101df57816003193601126101df5760075490516001600160a01b039091168152602090f35b83346105cd57806003193601126105cd5761086261118a565b600780546001600160a01b0319811690915581906001600160a01b03167f8be0079c531659141344cd1fd0a4f28419497f9722a3daafe3b4186f6b6457e08280a380f35b5091346105cd5760203660031901126105cd576001600160a01b036108c9610d97565b169283156108e65750806020938392526003845220549051908152f35b91516322718ad960e21b815291820152602490fd5b5091346105cd5760203660031901126105cd575061091b6020923561114f565b90516001600160a01b039091168152f35b5082346105cd576020806003193601126101df5767ffffffffffffffff908335828111610a97576109609036908601610ea4565b9361096961118a565b8451928311610a84575061097e600954610ec2565b601f8111610a33575b50602090601f83116001146109c4575082938293926109b9575b50508160011b916000199060031b1c19161760095580f35b0151905083806109a1565b60098452601f1983169460008051602061165c833981519152929185905b878210610a1b575050836001959610610a02575b505050811b0160095580f35b015160001960f88460031b161c191690558380806109f6565b806001859682949686015181550195019301906109e2565b6009845260008051602061165c833981519152601f840160051c81019160208510610a7a575b601f0160051c01905b818110610a6f5750610987565b848155600101610a62565b9091508190610a59565b634e487b7160e01b845260419052602483fd5b8380fd5b5050346101df57816003193601126101df576020906008549051908152f35b5050346101df5761067390610ace36610dc8565b91925192610adb84610dfd565b85845261066e838383610fb0565b83346105cd57610673610afb36610dc8565b91610fb0565b50903461018d578060031936011261018d57610b1b610d97565b91602435610b288161114f565b33151580610bca575b80610ba1575b610b8b576001600160a01b039485169482918691167f8c5be1e5ebec7d5bd14f71427d1e84f3dd0314c0f7b2291e5b200ac8c7c3b9258880a48452602052822080546001600160a01b031916909117905580f35b835163a9fbf51f60e01b81523381850152602490fd5b506001600160a01b03811686526005602090815284872033885290528386205460ff1615610b37565b506001600160a01b038116331415610b31565b503461018d57602036600319011261018d57918260209335610bfe8161114f565b50825283528190205490516001600160a01b039091168152f35b8284346105cd57806003193601126105cd5781519182828354610c3a81610ec2565b90818452602095600191876001821691826000146107f9575050600114610c6e57505050610604929161078e910385610e2f565b91908693508280527f290decd9548b62a8d60345a988386fc84ba6bc95484008f6362f93160ef3e5635b828410610cb1575050508201018161078e61060461077b565b8054848a018601528895508794909301928101610c98565b9250503461018d57602036600319011261018d573563ffffffff60e01b811680910361018d5760209250632483248360e11b8114908115610d0c575b5015158152f35b6380ac58cd60e01b811491508115610d3e575b8115610d2d575b5038610d05565b6301ffc9a760e01b14905038610d26565b635b5e139f60e01b81149150610d1f565b60005b838110610d625750506000910152565b8181015183820152602001610d52565b90602091610d8b81518092818552858086019101610d4f565b601f01601f1916010190565b600435906001600160a01b0382168203610dad57565b600080fd5b602435906001600160a01b0382168203610dad57565b6060906003190112610dad576001600160a01b03906004358281168103610dad57916024359081168103610dad579060443590565b6020810190811067ffffffffffffffff821117610e1957604052565b634e487b7160e01b600052604160045260246000fd5b90601f8019910116810190811067ffffffffffffffff821117610e1957604052565b67ffffffffffffffff8111610e1957601f01601f191660200190565b929192610e7982610e51565b91610e876040519384610e2f565b829481845281830111610dad578281602093846000960137010152565b9080601f83011215610dad57816020610ebf93359101610e6d565b90565b90600182811c92168015610ef2575b6020831014610edc57565b634e487b7160e01b600052602260045260246000fd5b91607f1691610ed1565b6040519060008260095491610f1083610ec2565b80835292602090600190818116908115610f8c5750600114610f3d575b5050610f3b92500383610e2f565b565b915092600960005260008051602061165c833981519152936000925b828410610f745750610f3b9450505081016020013880610f2d565b85548885018301529485019487945092810192610f59565b91505060209250610f3b94915060ff191682840152151560051b8201013880610f2d565b6001600160a01b039182169290918315611136576000928284528260209560028752604096848888205416968791331515806110a0575b509060027fddf252ad1be2c89b69c2b068fc378daa952ba7f163c4a11628f55a4df523b3ef928461106d575b858352600381528b8320805460010190558683525289812080546001600160a01b0319168517905580a4169283830361104c5750505050565b6064945051926364283d7b60e01b8452600484015260248301526044820152fd5b600087815260046020526040902080546001600160a01b0319169055848352600381528b83208054600019019055611013565b919394509150806110f5575b156110bc57859291879138610fe7565b8786886110d9576024915190637e27328960e01b82526004820152fd5b604491519063177e802f60e01b82523360048301526024820152fd5b50338714801561111a575b806110ac57508582526004815233858984205416146110ac565b5086825260058152878220338352815260ff8883205416611100565b604051633250574960e11b815260006004820152602490fd5b6000818152600260205260409020546001600160a01b0316908115611172575090565b60249060405190637e27328960e01b82526004820152fd5b6007546001600160a01b0316330361119e57565b60405163118cdaa760e01b8152336004820152602490fd5b813b6111c3575b50505050565b604051630a85bd0160e11b8082523360048301526001600160a01b03928316602483015260448201949094526080606482015260209592909116939092908390611211906084830190610d72565b039285816000958187895af18491816112ba575b50611285575050503d60001461127d573d61123f81610e51565b9061124d6040519283610e2f565b81528091843d92013e5b8051928361127857604051633250574960e11b815260048101849052602490fd5b019050fd5b506060611257565b919450915063ffffffff60e01b16036112a25750388080806111bd565b60249060405190633250574960e11b82526004820152fd5b9091508681813d83116112f3575b6112d28183610e2f565b810103126105c957516001600160e01b0319811681036105c9579038611225565b503d6112c8565b6020610f3b91939293604051948161131b8793518092868087019101610d4f565b820161132f82518093868085019101610d4f565b01038085520183610e2f565b6113448161114f565b506000818152602060068152604091828120835182918181549361136785610ec2565b9283835260019588878216918260001461163b5750506001146115fd575b5061139292500382610e2f565b61139a610efc565b8051156115f35781516115e35750506113b28561114f565b508351948286600954916113c583610ec2565b928383528786821691826000146115c657505060011461157d575b6113ec92500387610e2f565b855115611568578092819481927a184f03e93ff9f4daa797ed6e38ed64bf6a1f010000000000000000908181101561155b575b50506d04ee2d6d415b85acef81000000008087101561154e575b50662386f26fc100008087101561153f575b506305f5e10080871015611530575b5061271080871015611521575b50606486101561150f575b906021929184600a80981015611505575b9594939291908483016114a161149882610e51565b9a519a8b610e2f565b808a526114b0601f1991610e51565b019036908a013750860101905b6114cf575b50505050610ebf916112fa565b600019019083906f181899199a1a9b1b9c1cb0b131b232b360811b8282061a835304918215611500579190826114bd565b6114c2565b9092019184611483565b60649095049460029290920191611472565b60049193960495019138611467565b6008919396049501913861145a565b6010919396049501913861144b565b8193960495019138611439565b049550869250388061141f565b5050925050519061157882610dfd565b815290565b5050600984528685858560008051602061165c8339815191525b8583106115ad5750506113ec93508201016113e0565b80919294505483858d0101520191018690858a93611597565b60ff1916848201526113ec94151560051b84010191506113e09050565b935093505050610ebf92506112fa565b5094505050505090565b915050845281858086208587915b858310611622575050611392935082010138611385565b809192945054838588010152019101869085859361160b565b60ff19168582015261139295151560051b8501019250389150611385905056fe6e1540171b6c0c960b71a7020d9f60077f6af931a8bbf590da0223dacf75c7afa2646970667358221220ca79952c410092052e40b9c5946955f53eab1b929d5b0948174da002ab250be464736f6c63430008190033",
  "devdoc": {
    "errors": {
      "ERC721IncorrectOwner(address,uint256,address)": [
        {
          "details": "Indicates an error related to the ownership over a particular token. Used in transfers.",
          "params": {
            "owner": "Address of the current owner of a token.",
            "sender": "Address whose tokens are being transferred.",
            "tokenId": "Identifier number of a token."
          }
        }
      ],
      "ERC721InsufficientApproval(address,uint256)": [
        {
          "details": "Indicates a failure with the `operator`s approval. Used in transfers.",
          "params": {
            "operator": "Address that may be allowed to operate on tokens without being their owner.",
            "tokenId": "Identifier number of a token."
          }
        }
      ],
      "ERC721InvalidApprover(address)": [
        {
          "details": "Indicates a failure with the `approver` of a token to be approved. Used in approvals.",
          "params": {
            "approver": "Address initiating an approval operation."
          }
        }
      ],
      "ERC721InvalidOperator(address)": [
        {
          "details": "Indicates a failure with the `operator` to be approved. Used in approvals.",
          "params": {
            "operator": "Address that may be allowed to operate on tokens without being their owner."
          }
        }
      ],
      "ERC721InvalidOwner(address)": [
        {
          "details": "Indicates that an address can't be an owner. For example, `address(0)` is a forbidden owner in EIP-20. Used in balance queries.",
          "params": {
            "owner": "Address of the current owner of a token."
          }
        }
      ],
      "ERC721InvalidReceiver(address)": [
        {
          "details": "Indicates a failure with the token `receiver`. Used in transfers.",
          "params": {
            "receiver": "Address to which tokens are being transferred."
          }
        }
      ],
      "ERC721InvalidSender(address)": [
        {
          "details": "Indicates a failure with the token `sender`. Used in transfers.",
          "params": {
            "sender": "Address whose tokens are being transferred."
          }
        }
      ],
      "ERC721NonexistentToken(uint256)": [
        {
          "details": "Indicates a `tokenId` whose `owner` is the zero address.",
          "params": {
            "tokenId": "Identifier number of a token."
          }
        }
      ],
      "OwnableInvalidOwner(address)": [
        {
          "details": "The owner is not a valid owner account. (eg. `address(0)`)"
        }
      ],
      "OwnableUnauthorizedAccount(address)": [
        {
          "details": "The caller account is not authorized to perform an operation."
        }
      ]
    },
    "events": {
      "Approval(address,address,uint256)": {
        "details": "Emitted when `owner` enables `approved` to manage the `tokenId` token."
      },
      "ApprovalForAll(address,address,bool)": {
        "details": "Emitted when `owner` enables or disables (`approved`) `operator` to manage all of its assets."
      },
      "BatchMetadataUpdate(uint256,uint256)": {
        "details": "This event emits when the metadata of a range of tokens is changed. So that the third-party platforms such as NFT market could timely update the images and related attributes of the NFTs."
      },
      "MetadataUpdate(uint256)": {
        "details": "This event emits when the metadata of a token is changed. So that the third-party platforms such as NFT market could timely update the images and related attributes of the NFT."
      },
      "Transfer(address,address,uint256)": {
        "details": "Emitted when `tokenId` token is transferred from `from` to `to`."
      }
    },
    "kind": "dev",
    "methods": {
      "approve(address,uint256)": {
        "details": "See {IERC721-approve}."
      },
      "balanceOf(address)": {
        "details": "See {IERC721-balanceOf}."
      },
      "getApproved(uint256)": {
        "details": "See {IERC721-getApproved}."
      },
      "isApprovedForAll(address,address)": {
        "details": "See {IERC721-isApprovedForAll}."
      },
      "name()": {
        "details": "See {IERC721Metadata-name}."
      },
      "owner()": {
        "details": "Returns the address of the current owner."
      },
      "ownerOf(uint256)": {
        "details": "See {IERC721-ownerOf}."
      },
      "renounceOwnership()": {
        "details": "Leaves the contract without owner. It will not be possible to call `onlyOwner` functions. Can only be called by the current owner. NOTE: Renouncing ownership will leave the contract without an owner, thereby disabling any functionality that is only available to the owner."
      },
      "safeTransferFrom(address,address,uint256)": {
        "details": "See {IERC721-safeTransferFrom}."
      },
      "safeTransferFrom(address,address,uint256,bytes)": {
        "details": "See {IERC721-safeTransferFrom}."
      },
      "setApprovalForAll(address,bool)": {
        "details": "See {IERC721-setApprovalForAll}."
      },
      "symbol()": {
        "details": "See {IERC721Metadata-symbol}."
      },
      "transferFrom(address,address,uint256)": {
        "details": "See {IERC721-transferFrom}."
      },
      "transferOwnership(address)": {
        "details": "Transfers ownership of the contract to a new account (`newOwner`). Can only be called by the current owner."
      }
    },
    "version": 1
  },
  "userdoc": {
    "kind": "user",
    "methods": {},
    "version": 1
  },
  "storageLayout": {
    "storage": [
      {
        "astId": 1294,
        "contract": "contracts/NFTReceipt.sol:NFTReceipt",
        "label": "_name",
        "offset": 0,
        "slot": "0",
        "type": "t_string_storage"
      },
      {
        "astId": 1296,
        "contract": "contracts/NFTReceipt.sol:NFTReceipt",
        "label": "_symbol",
        "offset": 0,
        "slot": "1",
        "type": "t_string_storage"
      },
      {
        "astId": 1300,
        "contract": "contracts/NFTReceipt.sol:NFTReceipt",
        "label": "_owners",
        "offset": 0,
        "slot": "2",
        "type": "t_mapping(t_uint256,t_address)"
      },
      {
        "astId": 1304,
        "contract": "contracts/NFTReceipt.sol:NFTReceipt",
        "label": "_balances",
        "offset": 0,
        "slot": "3",
        "type": "t_mapping(t_address,t_uint256)"
      },
      {
        "astId": 1308,
        "contract": "contracts/NFTReceipt.sol:NFTReceipt",
        "label": "_tokenApprovals",
        "offset": 0,
        "slot": "4",
        "type": "t_mapping(t_uint256,t_address)"
      },
      {
        "astId": 1314,
        "contract": "contracts/NFTReceipt.sol:NFTReceipt",
        "label": "_operatorApprovals",
        "offset": 0,
        "slot": "5",
        "type": "t_mapping(t_address,t_mapping(t_address,t_bool))"
      },
      {
        "astId": 2433,
        "contract": "contracts/NFTReceipt.sol:NFTReceipt",
        "label": "_tokenURIs",
        "offset": 0,
        "slot": "6",
        "type": "t_mapping(t_uint256,t_string_storage)"
      },
      {
        "astId": 8,
        "contract": "contracts/NFTReceipt.sol:NFTReceipt",
        "label": "_owner",
        "offset": 0,
        "slot": "7",
        "type": "t_address"
      },
      {
        "astId": 5612,
        "contract": "contracts/NFTReceipt.sol:NFTReceipt",
        "label": "_tokenIdCounter",
        "offset": 0,
        "slot": "8",
        "type": "t_uint256"
      },
      {
        "astId": 5615,
        "contract": "contracts/NFTReceipt.sol:NFTReceipt",
        "label": "baseUri",
        "offset": 0,
        "slot": "9",
        "type": "t_string_storage"
      }
    ],
    "types": {
      "t_address": {
        "encoding": "inplace",
        "label": "address",
        "numberOfBytes": "20"
      },
      "t_bool": {
        "encoding": "inplace",
        "label": "bool",
        "numberOfBytes": "1"
      },
      "t_mapping(t_address,t_bool)": {
        "encoding": "mapping",
        "key": "t_address",
        "label": "mapping(address => bool)",
        "numberOfBytes": "32",
        "value": "t_bool"
      },
      "t_mapping(t_address,t_mapping(t_address,t_bool))": {
        "encoding": "mapping",
        "key": "t_address",
        "label": "mapping(address => mapping(address => bool))",
        "numberOfBytes": "32",
        "value": "t_mapping(t_address,t_bool)"
      },
      "t_mapping(t_address,t_uint256)": {
        "encoding": "mapping",
        "key": "t_address",
        "label": "mapping(address => uint256)",
        "numberOfBytes": "32",
        "value": "t_uint256"
      },
      "t_mapping(t_uint256,t_address)": {
        "encoding": "mapping",
        "key": "t_uint256",
        "label": "mapping(uint256 => address)",
        "numberOfBytes": "32",
        "value": "t_address"
      },
      "t_mapping(t_uint256,t_string_storage)": {
        "encoding": "mapping",
        "key": "t_uint256",
        "label": "mapping(uint256 => string)",
        "numberOfBytes": "32",
        "value": "t_string_storage"
      },
      "t_string_storage": {
        "encoding": "bytes",
        "label": "string",
        "numberOfBytes": "32"
      },
      "t_uint256": {
        "encoding": "inplace",
        "label": "uint256",
        "numberOfBytes": "32"
      }
    }
  }
}