{
  "address": "0xDc64a140Aa3E981100a9becA4E685f962f0cF6C9",
  "abi": [
    {
      "inputs": [
        {
          "internalType": "address",
          "name": "_admin",
          "type": "address"
        },
        {
          "internalType": "address",
          "name": "_adminPaymentAddress",
          "type": "address"
        },
        {
          "internalType": "address",
          "name": "_receiptNFT",
          "type": "address"
        }
      ],
      "stateMutability": "nonpayable",
      "type": "constructor"
    },
    {
      "inputs": [
        {
          "internalType": "address",
          "name": "target",
          "type": "address"
        }
      ],
      "name": "AddressEmptyCode",
      "type": "error"
    },
    {
      "inputs": [
        {
          "internalType": "address",
          "name": "account",
          "type": "address"
        }
      ],
      "name": "AddressInsufficientBalance",
      "type": "error"
    },
    {
      "inputs": [],
      "name": "ContractClosed",
      "type": "error"
    },
    {
      "inputs": [],
      "name": "DuplicateOrder",
      "type": "error"
    },
    {
      "inputs": [],
      "name": "FailedInnerCall",
      "type": "error"
    },
    {
      "inputs": [],
      "name": "NotEnoughMoney",
      "type": "error"
    },
    {
      "inputs": [],
      "name": "NotStoreOwner",
      "type": "error"
    },
    {
      "inputs": [
        {
          "internalType": "address",
          "name": "owner",
          "type": "address"
        }
      ],
      "name": "OwnableInvalidOwner",
      "type": "error"
    },
    {
      "inputs": [
        {
          "internalType": "address",
          "name": "account",
          "type": "address"
        }
      ],
      "name": "OwnableUnauthorizedAccount",
      "type": "error"
    },
    {
      "inputs": [
        {
          "internalType": "address",
          "name": "token",
          "type": "address"
        }
      ],
      "name": "SafeERC20FailedOperation",
      "type": "error"
    },
    {
      "inputs": [],
      "name": "StoreClosed",
      "type": "error"
    },
    {
      "anonymous": false,
      "inputs": [
        {
          "indexed": true,
          "internalType": "address",
          "name": "previousOwner",
          "type": "address"
        },
        {
          "indexed": true,
          "internalType": "address",
          "name": "newOwner",
          "type": "address"
        }
      ],
      "name": "OwnershipTransferred",
      "type": "event"
    },
    {
      "anonymous": false,
      "inputs": [
        {
          "indexed": true,
          "internalType": "address",
          "name": "payer",
          "type": "address"
        },
        {
          "indexed": true,
          "internalType": "uint256",
          "name": "storeId",
          "type": "uint256"
        },
        {
          "indexed": true,
          "internalType": "bytes32",
          "name": "orderTransactionReference",
          "type": "bytes32"
        },
        {
          "indexed": false,
          "internalType": "uint256",
          "name": "receiptTokenId",
          "type": "uint256"
        },
        {
          "indexed": false,
          "internalType": "uint256",
          "name": "amount",
          "type": "uint256"
        },
        {
          "indexed": false,
          "internalType": "address",
          "name": "token",
          "type": "address"
        }
      ],
      "name": "PurchaseCompleted",
      "type": "event"
    },
    {
      "anonymous": false,
      "inputs": [
        {
          "indexed": true,
          "internalType": "uint256",
          "name": "storeId",
          "type": "uint256"
        },
        {
          "indexed": false,
          "internalType": "string",
          "name": "name",
          "type": "string"
        },
        {
          "indexed": true,
          "internalType": "address",
          "name": "paymentAddress",
          "type": "address"
        },
        {
          "indexed": true,
          "internalType": "string",
          "name": "txRef",
          "type": "string"
        },
        {
          "indexed": false,
          "internalType": "uint256",
          "name": "currencyId",
          "type": "uint256"
        },
        {
          "indexed": false,
          "internalType": "string",
          "name": "txRefRaw",
          "type": "string"
        }
      ],
      "name": "StoreCreated",
      "type": "event"
    },
    {
      "inputs": [
        {
          "internalType": "uint256",
          "name": "storeId",
          "type": "uint256"
        },
        {
          "internalType": "address",
          "name": "_paymentAddress",
          "type": "address"
        }
      ],
      "name": "changePaymentAddress",
      "outputs": [
        {
          "internalType": "address",
          "name": "",
          "type": "address"
        }
      ],
      "stateMutability": "nonpayable",
      "type": "function"
    },
    {
      "inputs": [
        {
          "internalType": "bytes32",
          "name": "transactionReference",
          "type": "bytes32"
        }
      ],
      "name": "getOrderDetails",
      "outputs": [
        {
          "internalType": "uint256",
          "name": "",
          "type": "uint256"
        },
        {
          "internalType": "string",
          "name": "",
          "type": "string"
        },
        {
          "internalType": "uint256",
          "name": "",
          "type": "uint256"
        },
        {
          "internalType": "address",
          "name": "",
          "type": "address"
        },
        {
          "internalType": "bool",
          "name": "",
          "type": "bool"
        },
        {
          "internalType": "uint256",
          "name": "",
          "type": "uint256"
        },
        {
          "internalType": "enum PayProcessor.OrderTypes",
          "name": "",
          "type": "uint8"
        }
      ],
      "stateMutability": "view",
      "type": "function"
    },
    {
      "inputs": [
        {
          "internalType": "uint256",
          "name": "storeId",
          "type": "uint256"
        }
      ],
      "name": "getStore",
      "outputs": [
        {
          "components": [
            {
              "internalType": "uint256",
              "name": "id",
              "type": "uint256"
            },
            {
              "internalType": "string",
              "name": "metadataUrl",
              "type": "string"
            },
            {
              "internalType": "uint256",
              "name": "date",
              "type": "uint256"
            },
            {
              "internalType": "string",
              "name": "name",
              "type": "string"
            },
            {
              "internalType": "address",
              "name": "paymentAddress",
              "type": "address"
            },
            {
              "internalType": "bool",
              "name": "storeOpened",
              "type": "bool"
            },
            {
              "internalType": "uint256",
              "name": "currencyId",
              "type": "uint256"
            },
            {
              "internalType": "address",
              "name": "storeOwner",
              "type": "address"
            }
          ],
          "internalType": "struct PayProcessor.Store",
          "name": "",
          "type": "tuple"
        }
      ],
      "stateMutability": "view",
      "type": "function"
    },
    {
      "inputs": [
        {
          "internalType": "uint256",
          "name": "storeId",
          "type": "uint256"
        }
      ],
      "name": "getStoreOrderCount",
      "outputs": [
        {
          "internalType": "uint256",
          "name": "",
          "type": "uint256"
        }
      ],
      "stateMutability": "view",
      "type": "function"
    },
    {
      "inputs": [
        {
          "internalType": "uint256",
          "name": "storeId",
          "type": "uint256"
        },
        {
          "internalType": "uint256",
          "name": "skip",
          "type": "uint256"
        },
        {
          "internalType": "uint256",
          "name": "take",
          "type": "uint256"
        }
      ],
      "name": "getStoreOrderIds",
      "outputs": [
        {
          "internalType": "bytes32[]",
          "name": "",
          "type": "bytes32[]"
        }
      ],
      "stateMutability": "view",
      "type": "function"
    },
    {
      "inputs": [],
      "name": "ipfsProductLink",
      "outputs": [
        {
          "internalType": "string",
          "name": "",
          "type": "string"
        }
      ],
      "stateMutability": "view",
      "type": "function"
    },
    {
      "inputs": [],
      "name": "isOpen",
      "outputs": [
        {
          "internalType": "bool",
          "name": "",
          "type": "bool"
        }
      ],
      "stateMutability": "view",
      "type": "function"
    },
    {
      "inputs": [
        {
          "internalType": "uint256",
          "name": "",
          "type": "uint256"
        },
        {
          "internalType": "uint256",
          "name": "",
          "type": "uint256"
        }
      ],
      "name": "orderByStoreOwners",
      "outputs": [
        {
          "internalType": "bytes32",
          "name": "",
          "type": "bytes32"
        }
      ],
      "stateMutability": "view",
      "type": "function"
    },
    {
      "inputs": [
        {
          "internalType": "bytes32",
          "name": "",
          "type": "bytes32"
        }
      ],
      "name": "orders",
      "outputs": [
        {
          "internalType": "bytes32",
          "name": "transactionReference",
          "type": "bytes32"
        },
        {
          "internalType": "string",
          "name": "metadataUrl",
          "type": "string"
        },
        {
          "internalType": "uint256",
          "name": "amount",
          "type": "uint256"
        },
        {
          "internalType": "address",
          "name": "token",
          "type": "address"
        },
        {
          "internalType": "address",
          "name": "customer",
          "type": "address"
        },
        {
          "internalType": "bool",
          "name": "paid",
          "type": "bool"
        },
        {
          "internalType": "uint256",
          "name": "date",
          "type": "uint256"
        },
        {
          "internalType": "enum PayProcessor.OrderTypes",
          "name": "orderType",
          "type": "uint8"
        },
        {
          "internalType": "uint256",
          "name": "storeId",
          "type": "uint256"
        }
      ],
      "stateMutability": "view",
      "type": "function"
    },
    {
      "inputs": [
        {
          "internalType": "bytes32",
          "name": "",
          "type": "bytes32"
        }
      ],
      "name": "ordersExisting",
      "outputs": [
        {
          "internalType": "bool",
          "name": "",
          "type": "bool"
        }
      ],
      "stateMutability": "view",
      "type": "function"
    },
    {
      "inputs": [],
      "name": "owner",
      "outputs": [
        {
          "internalType": "address",
          "name": "",
          "type": "address"
        }
      ],
      "stateMutability": "view",
      "type": "function"
    },
    {
      "inputs": [
        {
          "internalType": "string",
          "name": "name",
          "type": "string"
        },
        {
          "internalType": "address",
          "name": "paymentAddress",
          "type": "address"
        },
        {
          "internalType": "string",
          "name": "txRef",
          "type": "string"
        },
        {
          "internalType": "string",
          "name": "storeMetadataUrl",
          "type": "string"
        },
        {
          "internalType": "uint256",
          "name": "currencyId",
          "type": "uint256"
        }
      ],
      "name": "registerStore",
      "outputs": [],
      "stateMutability": "nonpayable",
      "type": "function"
    },
    {
      "inputs": [],
      "name": "renounceOwnership",
      "outputs": [],
      "stateMutability": "nonpayable",
      "type": "function"
    },
    {
      "inputs": [
        {
          "internalType": "uint256",
          "name": "storeId",
          "type": "uint256"
        },
        {
          "internalType": "bytes32",
          "name": "transactionReference",
          "type": "bytes32"
        },
        {
          "internalType": "address",
          "name": "token",
          "type": "address"
        },
        {
          "internalType": "uint256",
          "name": "amount",
          "type": "uint256"
        },
        {
          "internalType": "enum PayProcessor.OrderTypes",
          "name": "orderType",
          "type": "uint8"
        },
        {
          "internalType": "string",
          "name": "orderMetadataUrl",
          "type": "string"
        }
      ],
      "name": "submitOrder",
      "outputs": [],
      "stateMutability": "payable",
      "type": "function"
    },
    {
      "inputs": [],
      "name": "toggleOpen",
      "outputs": [
        {
          "internalType": "bool",
          "name": "",
          "type": "bool"
        }
      ],
      "stateMutability": "nonpayable",
      "type": "function"
    },
    {
      "inputs": [
        {
          "internalType": "address",
          "name": "newOwner",
          "type": "address"
        }
      ],
      "name": "transferOwnership",
      "outputs": [],
      "stateMutability": "nonpayable",
      "type": "function"
    }
  ],
  "transactionHash": "0xfa30d147033251e9f2b9d2b4c19964ae4b30262dc0b63973f995d592352dc858",
  "args": [
    "0xf39Fd6e51aad88F6F4ce6aB8827279cffFb92266",
    "0xf39Fd6e51aad88F6F4ce6aB8827279cffFb92266",
    "0x9fE46736679d2D9a65F0992F2272dE9f3c7fa6e0"
  ],
  "numDeployments": 1,
  "solcInputHash": "a1bbfd2f4ce545329bb1f22f5e0dea5e",
  "bytecode": "0x60803461011657601f61193938819003918201601f19168301916001600160401b0383118484101761011b578084926060946040528339810103126101165761004781610131565b61005f604061005860208501610131565b9301610131565b9033156100fd576000549260018060a01b03908160018060a01b031993338588161760005560405196823391167f8be0079c531659141344cd1fd0a4f28419497f9722a3daafe3b4186f6b6457e0600080a3606460065560006008551683600454161760045516906005541617600555600a5490610100600160a81b039060081b1690610100600160a81b03191617600a556117f390816101468239f35b604051631e4fbdf760e01b815260006004820152602490fd5b600080fd5b634e487b7160e01b600052604160045260246000fd5b51906001600160a01b03821682036101165756fe608080604052600436101561001357600080fd5b600090813560e01c908163024663f7146111b1575080633586c9a41461113857806347535d7b146111155780635e7d47121461100657806370d1904c14610fd7578063715018a614610f7d57806371f6791b14610f355780638340312014610e555780638da5cb5b14610e2e5780639c3f1e9014610d78578063a564a9571461074a578063a7b722941461070c578063af2ca2861461027b578063d933d09514610251578063f2fde38b146101ba5763f6a0bfd6146100d157600080fd5b346101b757806003193601126101b7576040516009546000826100f383611381565b918282526020936001908560018216918260001461019757505060011461013a575b5061012292500383611409565b6101366040519282849384528301906112f5565b0390f35b84915060096000527f6e1540171b6c0c960b71a7020d9f60077f6af931a8bbf590da0223dacf75c7af906000915b85831061017f575050610122935082010185610115565b80548389018501528794508693909201918101610168565b60ff19168582015261012295151560051b85010192508791506101159050565b80fd5b50346101b75760203660031901126101b7576004356001600160a01b038181169182900361024c576101ea61163c565b811561023357600054826bffffffffffffffffffffffff60a01b821617600055167f8be0079c531659141344cd1fd0a4f28419497f9722a3daafe3b4186f6b6457e0600080a380f35b604051631e4fbdf760e01b815260048101849052602490fd5b600080fd5b50346101b75760203660031901126101b75760406020916004358152600183522054604051908152f35b50346101b75760a03660031901126101b7576004356001600160401b038111610708576102ac9036906004016114ea565b6102b461133d565b906044356001600160401b038111610704576102d49036906004016114ea565b906064356001600160401b038111610700576102f49036906004016114ea565b60085460001981146106ec57600101908160085560405191610315836113ed565b82526020820152426040820152606081018290526001600160a01b0384166080820152600160a082015260843560c08201523360e0820152600754600160401b8110156106d85780600161036c920160075561153d565b6106c4578151815560208201518051906001600160401b0382116105e55781906103996001850154611381565b601f8111610673575b50602090601f83116001146106045789926105f9575b50508160011b916000199060031b1c19161760018201555b6040820151600282015560608201518051906001600160401b0382116105e55781906103ff6003850154611381565b601f8111610594575b50602090601f831160011461052557899261051a575b50508160011b916000199060031b1c19161760038201555b608082015160048201805460a0808601516001600160a81b03199092166001600160a01b0394851617911515901b60ff60a01b1617905560c0830151600583015560e090920151600690910180546001600160a01b03191691909216179055600854604051835191927f08a0bbe31bdb2ba01b98933212b202f024b4f9f601ff506cfcdd699cbb840c9c926104f3926105149181906104d9818360208c016112d2565b8101039020966040519384936060855260608501906112f5565b608435602085015283810360408501526001600160a01b03909116966112f5565b0390a480f35b01519050388061041e565b9250600384018952602089209089935b601f1984168510610579576001945083601f19811610610560575b505050811b016003820155610436565b015160001960f88460031b161c19169055388080610550565b81810151835560209485019460019093019290910190610535565b90915060038401895260208920601f840160051c8101602085106105de575b90849392915b601f830160051c820181106105cf575050610408565b600081558594506001016105b9565b50806105b3565b634e487b7160e01b88526041600452602488fd5b0151905038806103b8565b9250600184018952602089209089935b601f1984168510610658576001945083601f1981161061063f575b505050811b0160018201556103d0565b015160001960f88460031b161c1916905538808061062f565b81810151835560209485019460019093019290910190610614565b90915060018401895260208920601f840160051c8101602085106106bd575b90849392915b601f830160051c820181106106ae5750506103a2565b60008155859450600101610698565b5080610692565b634e487b7160e01b86526004869052602486fd5b634e487b7160e01b86526041600452602486fd5b634e487b7160e01b86526011600452602486fd5b8480fd5b8380fd5b5080fd5b50346101b757806003193601126101b75760209061072861163c565b600a549060ff8083161516908160ff19841617600a5560405192161715158152f35b5060c03660031901126101b7576044356001600160a01b038116810361070857608435906002821015610b7b5760a4356001600160401b038111610704576107969036906004016114ea565b6064359260ff600a541615610d665760ff60046107b3813561153d565b50015460a01c1615610d54576024358552600260205260ff604086205416610d425761082390604051926107e6846113bb565b6024358452602084015260643560408401526001600160a01b038416606084015233608084015260a083018690524260c084015260e08301611531565b60043561010082015261084061083a60043561153d565b5061158e565b926001600160a01b038316610cad57506064353410610c9b57833493608060018060a01b039101511681808080612710946108888661088134600654611606565b043461162f565b90828215610c92575bf115610c85578180809260018060a01b0360055416906108b334600654611606565b0490828215610c7c575bf115610c71575b600160a08201526024358452600260205260408420600160ff198254161790556003602052604084208151815560208201518051906001600160401b038211610c5d5781906109166001850154611381565b601f8111610c0d575b50602090601f8311600114610b9e578892610b93575b50508160011b916000199060031b1c19161760018201555b6040820151600282015560608201516003820180546001600160a01b0319166001600160a01b03928316179055608083015160048301805460a0808701516001600160a81b0319909216939094169290921791151590921b60ff60a01b1617905560c0820151600582015560e08201516002811015610b7f5760ff8019600684015416911617600682015560076101008301519101556004358452600160205260408420805490600160401b8210156106d85790610a1091600182018155611353565b815460243560039290921b91821b60001990921b1916179055600a5460808201516020909201516001600160a01b0392831692869260081c16803b15610b7b57610a7e9383604051809681958294636902622f60e11b845260048401526040602484015260448301906112f5565b03925af18015610b4457610b4f575b50600a5460405163224f2cf760e11b815292906020908490600490829060081c6001600160a01b03165afa928315610b44578493610b10575b50604051928352602083015260018060a01b0316604082015260243590600435907f5c1ce25d28b9882ab197699d5e08625fc7b3270d6422db07c69fcdb51007daee60603392a480f35b9092506020813d602011610b3c575b81610b2c60209383611409565b8101031261070457519138610ac6565b3d9150610b1f565b6040513d86823e3d90fd5b6001600160401b038111610b67576040526004610a8d565b634e487b7160e01b84526041600452602484fd5b8280fd5b634e487b7160e01b86526021600452602486fd5b015190503880610935565b9250600184018852602088209088935b601f1984168510610bf2576001945083601f19811610610bd9575b505050811b01600182015561094d565b015160001960f88460031b161c19169055388080610bc9565b81810151835560209485019460019093019290910190610bae565b90915060018401885260208820601f840160051c810160208510610c56575b90849392915b601f830160051c82018110610c4857505061091f565b8a8155859450600101610c32565b5080610c2c565b634e487b7160e01b87526041600452602487fd5b6040513d85823e3d90fd5b506108fc6108bd565b50604051903d90823e3d90fd5b506108fc610891565b604051636b90fe5960e11b8152600490fd5b92610d3d90610d0260018060a01b0360808501511691608060018060a01b039101511691604085015192610cf26127109485610ceb82600654611606565b049061162f565b916001600160a01b038816611668565b608083015160055460065460408601516001600160a01b03938416949290931692610d2c91611606565b04916001600160a01b038616611668565b6108c4565b60405163015b9d8b60e41b8152600490fd5b6040516335f2b46160e21b8152600490fd5b60405163d82cb69560e01b8152600490fd5b50346101b75760203660031901126101b75760409060043581526003602052208054610da66001830161142a565b91600281015490610e2460018060a01b0391826003820154169260ff600483015460058401549260078360068701541695015496610df86040519b8c809c6020610120928392815201528c01906112f5565b9860408b015260608a01528116608089015260a01c16151560a087015260c086015260e085019061131a565b6101008301520390f35b50346101b757806003193601126101b757546040516001600160a01b039091168152602090f35b50346101b75760203660031901126101b75760e0604051610e75816113ed565b828152606060208201528260408201526060808201528260808201528260a08201528260c08201520152610ead61083a60043561153d565b604051809160208252805160208301526020810151610efd610edd610100928360408701526101208601906112f5565b604084015160608601526060840151601f198683030160808701526112f5565b9160e060808201519160018060a01b0380931660a087015260a0810151151560c087015260c081015182870152015116908301520390f35b50346101b75760403660031901126101b7576024359060043581526001602052604081209081548310156101b7576020610f6f8484611353565b90546040519160031b1c8152f35b50346101b757806003193601126101b757610f9661163c565b80546001600160a01b03198116825581906001600160a01b03167f8be0079c531659141344cd1fd0a4f28419497f9722a3daafe3b4186f6b6457e08280a380f35b50346101b75760203660031901126101b75760ff60406020926004358152600284522054166040519015158152f35b50346101b75760603660031901126101b757600435602491602435906044359361102f85611577565b9461103d6040519687611409565b80865261104981611577565b6020958787019591601f1901368737845b8381106110a457505050505060405193838594850191818652518092526040850193925b82811061108d57505050500390f35b83518552869550938101939281019260010161107e565b8186999798965260018652604089208184019081851161110257906110c891611353565b90549088518310156110ef5760031b1c600582901b8801870152959794969560010161105a565b634e487b7160e01b8b526032600452868bfd5b634e487b7160e01b8b526011600452868bfd5b50346101b757806003193601126101b757602060ff600a54166040519015158152f35b50346101b75760403660031901126101b75761115261133d565b61115d60043561153d565b5060068101549091906001600160a01b03908116330361119f57600460209301911690816bffffffffffffffffffffffff60a01b825416179055604051908152f35b60405163f654479360e01b8152600490fd5b905034610708576020366003190112610708576004358252600360205261010060408320916111df816113bb565b825481526111ef6001840161142a565b602082019081526002840154936040830194855260018060a01b0392836003830154169360608201948552600483015493818516608084015260ff60a084019560a01c161515855260058401549260c08101938452600760ff6006870154169561125d60e084019788611531565b0154978891015251965194511692511515905191519260028410156112be579061013693929161129f604051988998895260e060208a015260e08901906112f5565b9560408801526060870152608086015260a085015260c084019061131a565b634e487b7160e01b88526021600452602488fd5b60005b8381106112e55750506000910152565b81810151838201526020016112d5565b9060209161130e815180928185528580860191016112d2565b601f01601f1916010190565b9060028210156113275752565b634e487b7160e01b600052602160045260246000fd5b602435906001600160a01b038216820361024c57565b805482101561136b5760005260206000200190600090565b634e487b7160e01b600052603260045260246000fd5b90600182811c921680156113b1575b602083101461139b57565b634e487b7160e01b600052602260045260246000fd5b91607f1691611390565b61012081019081106001600160401b038211176113d757604052565b634e487b7160e01b600052604160045260246000fd5b61010081019081106001600160401b038211176113d757604052565b90601f801991011681019081106001600160401b038211176113d757604052565b9060405191826000825461143d81611381565b908184526020946001916001811690816000146114ad575060011461146e575b50505061146c92500383611409565b565b600090815285812095935091905b81831061149557505061146c935082010138808061145d565b8554888401850152948501948794509183019161147c565b9250505061146c94925060ff191682840152151560051b82010138808061145d565b6001600160401b0381116113d757601f01601f191660200190565b81601f8201121561024c57803590611501826114cf565b9261150f6040519485611409565b8284526020838301011161024c57816000926020809301838601378301015290565b60028210156113275752565b60075481101561136b5760079081600052027fa66cc928b5edb82af9bd49922954155ab7b0942694bea4ce44661d9a8736c6880190600090565b6001600160401b0381116113d75760051b60200190565b9060405161159b816113ed565b60e08193805483526115af6001820161142a565b6020840152600281015460408401526115ca6003820161142a565b6060840152600660048201549160ff60018060a01b0393848116608088015260a01c16151560a0860152600581015460c0860152015416910152565b8181029291811591840414171561161957565b634e487b7160e01b600052601160045260246000fd5b9190820391821161161957565b6000546001600160a01b0316330361165057565b60405163118cdaa760e01b8152336004820152602490fd5b6040516323b872dd60e01b602082019081526001600160a01b039384166024830152938316604482015260648082019590955293845260a0840191906001600160401b038311858410176113d7576116fa926040521692600080938192519082875af13d15611752573d906116dc826114cf565b916116ea6040519384611409565b82523d84602084013e5b8461175a565b90815191821515928361172a575b5050506117125750565b60249060405190635274afe760e01b82526004820152fd5b8192935090602091810103126107085760200151908115918215036101b75750388080611708565b6060906116f4565b90611781575080511561176f57805190602001fd5b604051630a12f52160e11b8152600490fd5b815115806117b4575b611792575090565b604051639996b31560e01b81526001600160a01b039091166004820152602490fd5b50803b1561178a56fea2646970667358221220d3d807e6b6fa530eb01b27dae1ccc40e301b7d2db10ae7849f3a2f7ae44c4f8464736f6c63430008190033",
  "devdoc": {
    "errors": {
      "AddressEmptyCode(address)": [
        {
          "details": "There's no code at `target` (it is not a contract)."
        }
      ],
      "AddressInsufficientBalance(address)": [
        {
          "details": "The ETH balance of the account is not enough to perform the operation."
        }
      ],
      "FailedInnerCall()": [
        {
          "details": "A call to an address target failed. The target may have reverted."
        }
      ],
      "OwnableInvalidOwner(address)": [
        {
          "details": "The owner is not a valid owner account. (eg. `address(0)`)"
        }
      ],
      "OwnableUnauthorizedAccount(address)": [
        {
          "details": "The caller account is not authorized to perform an operation."
        }
      ],
      "SafeERC20FailedOperation(address)": [
        {
          "details": "An operation with an ERC20 token failed."
        }
      ]
    },
    "kind": "dev",
    "methods": {
      "owner()": {
        "details": "Returns the address of the current owner."
      },
      "renounceOwnership()": {
        "details": "Leaves the contract without owner. It will not be possible to call `onlyOwner` functions. Can only be called by the current owner. NOTE: Renouncing ownership will leave the contract without an owner, thereby disabling any functionality that is only available to the owner."
      },
      "transferOwnership(address)": {
        "details": "Transfers ownership of the contract to a new account (`newOwner`). Can only be called by the current owner."
      }
    },
    "version": 1
  },
  "userdoc": {
    "kind": "user",
    "methods": {},
    "version": 1
  },
  "storageLayout": {
    "storage": [
      {
        "astId": 8,
        "contract": "contracts/PayProcessor.sol:PayProcessor",
        "label": "_owner",
        "offset": 0,
        "slot": "0",
        "type": "t_address"
      },
      {
        "astId": 5811,
        "contract": "contracts/PayProcessor.sol:PayProcessor",
        "label": "orderByStoreOwners",
        "offset": 0,
        "slot": "1",
        "type": "t_mapping(t_uint256,t_array(t_bytes32)dyn_storage)"
      },
      {
        "astId": 5815,
        "contract": "contracts/PayProcessor.sol:PayProcessor",
        "label": "ordersExisting",
        "offset": 0,
        "slot": "2",
        "type": "t_mapping(t_bytes32,t_bool)"
      },
      {
        "astId": 5820,
        "contract": "contracts/PayProcessor.sol:PayProcessor",
        "label": "orders",
        "offset": 0,
        "slot": "3",
        "type": "t_mapping(t_bytes32,t_struct(Order)5789_storage)"
      },
      {
        "astId": 5822,
        "contract": "contracts/PayProcessor.sol:PayProcessor",
        "label": "admin",
        "offset": 0,
        "slot": "4",
        "type": "t_address"
      },
      {
        "astId": 5824,
        "contract": "contracts/PayProcessor.sol:PayProcessor",
        "label": "adminPaymentAddress",
        "offset": 0,
        "slot": "5",
        "type": "t_address"
      },
      {
        "astId": 5827,
        "contract": "contracts/PayProcessor.sol:PayProcessor",
        "label": "adminFee",
        "offset": 0,
        "slot": "6",
        "type": "t_uint256"
      },
      {
        "astId": 5831,
        "contract": "contracts/PayProcessor.sol:PayProcessor",
        "label": "stores",
        "offset": 0,
        "slot": "7",
        "type": "t_array(t_struct(Store)5806_storage)dyn_storage"
      },
      {
        "astId": 5834,
        "contract": "contracts/PayProcessor.sol:PayProcessor",
        "label": "storeCount",
        "offset": 0,
        "slot": "8",
        "type": "t_uint256"
      },
      {
        "astId": 5836,
        "contract": "contracts/PayProcessor.sol:PayProcessor",
        "label": "ipfsProductLink",
        "offset": 0,
        "slot": "9",
        "type": "t_string_storage"
      },
      {
        "astId": 5838,
        "contract": "contracts/PayProcessor.sol:PayProcessor",
        "label": "isOpen",
        "offset": 0,
        "slot": "10",
        "type": "t_bool"
      },
      {
        "astId": 5841,
        "contract": "contracts/PayProcessor.sol:PayProcessor",
        "label": "receiptNFT",
        "offset": 1,
        "slot": "10",
        "type": "t_contract(NFTReceipt)5714"
      }
    ],
    "types": {
      "t_address": {
        "encoding": "inplace",
        "label": "address",
        "numberOfBytes": "20"
      },
      "t_array(t_bytes32)dyn_storage": {
        "base": "t_bytes32",
        "encoding": "dynamic_array",
        "label": "bytes32[]",
        "numberOfBytes": "32"
      },
      "t_array(t_struct(Store)5806_storage)dyn_storage": {
        "base": "t_struct(Store)5806_storage",
        "encoding": "dynamic_array",
        "label": "struct PayProcessor.Store[]",
        "numberOfBytes": "32"
      },
      "t_bool": {
        "encoding": "inplace",
        "label": "bool",
        "numberOfBytes": "1"
      },
      "t_bytes32": {
        "encoding": "inplace",
        "label": "bytes32",
        "numberOfBytes": "32"
      },
      "t_contract(NFTReceipt)5714": {
        "encoding": "inplace",
        "label": "contract NFTReceipt",
        "numberOfBytes": "20"
      },
      "t_enum(OrderTypes)5769": {
        "encoding": "inplace",
        "label": "enum PayProcessor.OrderTypes",
        "numberOfBytes": "1"
      },
      "t_mapping(t_bytes32,t_bool)": {
        "encoding": "mapping",
        "key": "t_bytes32",
        "label": "mapping(bytes32 => bool)",
        "numberOfBytes": "32",
        "value": "t_bool"
      },
      "t_mapping(t_bytes32,t_struct(Order)5789_storage)": {
        "encoding": "mapping",
        "key": "t_bytes32",
        "label": "mapping(bytes32 => struct PayProcessor.Order)",
        "numberOfBytes": "32",
        "value": "t_struct(Order)5789_storage"
      },
      "t_mapping(t_uint256,t_array(t_bytes32)dyn_storage)": {
        "encoding": "mapping",
        "key": "t_uint256",
        "label": "mapping(uint256 => bytes32[])",
        "numberOfBytes": "32",
        "value": "t_array(t_bytes32)dyn_storage"
      },
      "t_string_storage": {
        "encoding": "bytes",
        "label": "string",
        "numberOfBytes": "32"
      },
      "t_struct(Order)5789_storage": {
        "encoding": "inplace",
        "label": "struct PayProcessor.Order",
        "members": [
          {
            "astId": 5771,
            "contract": "contracts/PayProcessor.sol:PayProcessor",
            "label": "transactionReference",
            "offset": 0,
            "slot": "0",
            "type": "t_bytes32"
          },
          {
            "astId": 5773,
            "contract": "contracts/PayProcessor.sol:PayProcessor",
            "label": "metadataUrl",
            "offset": 0,
            "slot": "1",
            "type": "t_string_storage"
          },
          {
            "astId": 5775,
            "contract": "contracts/PayProcessor.sol:PayProcessor",
            "label": "amount",
            "offset": 0,
            "slot": "2",
            "type": "t_uint256"
          },
          {
            "astId": 5777,
            "contract": "contracts/PayProcessor.sol:PayProcessor",
            "label": "token",
            "offset": 0,
            "slot": "3",
            "type": "t_address"
          },
          {
            "astId": 5779,
            "contract": "contracts/PayProcessor.sol:PayProcessor",
            "label": "customer",
            "offset": 0,
            "slot": "4",
            "type": "t_address"
          },
          {
            "astId": 5781,
            "contract": "contracts/PayProcessor.sol:PayProcessor",
            "label": "paid",
            "offset": 20,
            "slot": "4",
            "type": "t_bool"
          },
          {
            "astId": 5783,
            "contract": "contracts/PayProcessor.sol:PayProcessor",
            "label": "date",
            "offset": 0,
            "slot": "5",
            "type": "t_uint256"
          },
          {
            "astId": 5786,
            "contract": "contracts/PayProcessor.sol:PayProcessor",
            "label": "orderType",
            "offset": 0,
            "slot": "6",
            "type": "t_enum(OrderTypes)5769"
          },
          {
            "astId": 5788,
            "contract": "contracts/PayProcessor.sol:PayProcessor",
            "label": "storeId",
            "offset": 0,
            "slot": "7",
            "type": "t_uint256"
          }
        ],
        "numberOfBytes": "256"
      },
      "t_struct(Store)5806_storage": {
        "encoding": "inplace",
        "label": "struct PayProcessor.Store",
        "members": [
          {
            "astId": 5791,
            "contract": "contracts/PayProcessor.sol:PayProcessor",
            "label": "id",
            "offset": 0,
            "slot": "0",
            "type": "t_uint256"
          },
          {
            "astId": 5793,
            "contract": "contracts/PayProcessor.sol:PayProcessor",
            "label": "metadataUrl",
            "offset": 0,
            "slot": "1",
            "type": "t_string_storage"
          },
          {
            "astId": 5795,
            "contract": "contracts/PayProcessor.sol:PayProcessor",
            "label": "date",
            "offset": 0,
            "slot": "2",
            "type": "t_uint256"
          },
          {
            "astId": 5797,
            "contract": "contracts/PayProcessor.sol:PayProcessor",
            "label": "name",
            "offset": 0,
            "slot": "3",
            "type": "t_string_storage"
          },
          {
            "astId": 5799,
            "contract": "contracts/PayProcessor.sol:PayProcessor",
            "label": "paymentAddress",
            "offset": 0,
            "slot": "4",
            "type": "t_address"
          },
          {
            "astId": 5801,
            "contract": "contracts/PayProcessor.sol:PayProcessor",
            "label": "storeOpened",
            "offset": 20,
            "slot": "4",
            "type": "t_bool"
          },
          {
            "astId": 5803,
            "contract": "contracts/PayProcessor.sol:PayProcessor",
            "label": "currencyId",
            "offset": 0,
            "slot": "5",
            "type": "t_uint256"
          },
          {
            "astId": 5805,
            "contract": "contracts/PayProcessor.sol:PayProcessor",
            "label": "storeOwner",
            "offset": 0,
            "slot": "6",
            "type": "t_address"
          }
        ],
        "numberOfBytes": "224"
      },
      "t_uint256": {
        "encoding": "inplace",
        "label": "uint256",
        "numberOfBytes": "32"
      }
    }
  }
}